:1008BA002057656C636F6D6520546F204D79204C0D
:1008CA0063642054696D65720020486170707920F4
:1008DA00457665727920446179205E5F5E004F56E5
:1008EA00455254454D5045524154555245210030C8
:1008FA003132333435363738390044696769742000
:10090A00746865726D6F6D65746572004453313831
:10091A00423230204552524F5200504C45415345C5
:10092A0020434845434B200057656E44753A0043BF
:04093A00656E740072
:06107C00011628010F0C13
:080CEA00120E23097F057E00B4
:100CF200EF1FAA0670011E4A60167C007D4CD3EDE0
:100D02009401EC6480948040E7ED1D70F11C80EE4C
:0F0D12007B1D7A00EB1B70011AEB64014A70F530
:010D210022AF
:09101E00D2967F02121027C2963F
:0A102700E4FEEEC39F50030E80F8B4
:01103100229C
:051083007FFA00DFFD13
:011088002245
:020D8D00AC07B1
:100D8F00AF041CEF602AE4FDE4FEB2B71210830E2D
:100D9F00BEC8F70DBD05F1E4FDEDC3940350E1E4CA
:100DAF00FEB2B71210831210830EBEC8F40D80E985
:010DBF002211
:09106A00D297D296C297C29622D9
:09107300C297D296D297C29622D0
:020F8700AD07B4
:100F8900C2967F02121027E4FBED13929712101EEE
:080F9900EDC313FD0BBB08F1D1
:010FA100222D
:0B0ECB007FF47E01120CF2E4FD7F8E2C
:100ED600AC0512106A120F877F05121027AF041295
:050EE6000F87021073EC
:100FA2007F02121027E4FCEDC313FD3097034305C3
:0A0FB2008012101E0CBC08EFAF0502
:010FBC002212
:1010460012106A120F877F02121027120FA21210B7
:011056007326
:011057002276
:100BA5007F81121046EF30E73B120ED2E4FD7F80C5
:100BB500120ED6E4FD7F82120ED6E4FD7F84120E5E
:100BC500D6E4FD7F86120ED6E4FD7F88120ED67D13
:100BD500107F8C120ED67DA57F90120ED67D807F5C
:040BE5008E120ED688
:010BE90022E9
:10100900C2A7D2A6D2A5000000A2879200000000C4
:04101900C2A5A200CA
:01101D0022B0
:050EEB00E4F5117F0C8D
:100EF00012100940FBC2A7C2A6C2A50000008F8045
:0B0F0000000000D2A5000000C2A522E6
:0610320075F00A84A9F02C
:0E103800EF4480FF120EF07F017E00020CF2EA
:0B0E18009008F993FF120E23E993FFEE
:100E2300D2A7C2A6C2A50000008F80000000D2A5F1
:0C0E3300000000C2A57F017E00020CF24E
:100DEF007F30120EF07F327E00120CF27F01120E56
:100DFF00F07F327E00120CF27F06120EF07F327EF1
:090E0F0000120CF27F0C020EF03F
:1007AA007F011210387F017E00120CF27F44120E74
:1007BA00237F41120E237F54120E237F45120E23EC
:1007CA007F3A120E237F017E00120CF27F0A12106A
:1007DA00387F017E00120CF27F2D120E237F0D123C
:1007EA0010387F2D120E237F421210387F54120EBA
:1007FA00237F49120E237F4D120E237F45120E23AB
:10080A007F3A120E237F4A1210387F2D120E237F51
:10081A004D1210387F2D120E237F061210387F32A8
:08082A00120E237F30020E23A1
:100FD700EF75F00A84F51AEF7F4E121032E51A12F8
:090FE7000E187F017E00020CF2DD
:100FF000EF75F00A84F51BEF7F4B121032E51B12E0
:091000000E187F017E00020CF2C3
:100F0B00EF75F00A84F51BEF75F00A84A9F07F48A2
:0F0F1B00121038E51B120E187F017E00020CF237
:100F2A00EF75F00A84F51BEF75F00A84A9F07F0EBD
:0F0F3A00121038E51B120E187F017E00020CF218
:100F4900EF75F00A84F51BEF75F00A84A9F07F0BA1
:0F0F5900121038E51B120E187F017E00020CF2F9
:100F6800EF75F00A84F51BEF75F00A84A9F07F0885
:0F0F7800121038E51B120E187F017E00020CF2DA
:100E6400EF75F00A84F51AEF75F00A84A9F07F444F
:100E7400121038E51A9008F993FF120E23E993FF34
:030E8400020E2338
:100E8700EF75F00A84F519EF75F00A84A9F07F472A
:100E9700121038E5199008F993FF120E23E993FF12
:030EA700020E2315
:10054F007F0C120EF07F81121046EF5470C4540FBF
:10055F0075F00AA4FEEF540F2EF517FF120FD77F79
:10056F0083121046EF5470C4540F75F00AA4FEEFB7
:10057F00540F2EF50AFF120FF07F85121046EF541D
:10058F0070C4540F75F00AA4FEEF540F2EF513FF2D
:10059F00120F0B7F87121046EF5470C4540F75F073
:1005AF000AA4FEEF540F2EFF120F2A7F8912104656
:1005BF00EF5470C4540F75F00AA4FEEF540F2EFFC2
:1005CF00120F497F8D121046EF54F0C4540F75F07F
:0B05DF000AA4FEEF540F2EFF020F686D
:100A14007F0F121038E99008BA93FF600D120E236D
:100A2400097F017E00120CF280EBE4F97F4F121073
:100A340038E99008D393FF600D120E23097F017EDD
:100A440000120CF280EB751928AF191519EF600E1E
:100A54007F18120EF07FBC7E02120CF280EB7F0135
:0A0A6400120EF07F0A7E00020CF271
:10105800121038120CEE7F0F120EF07F057E000280
:021068000CF288
:020CAD00A90795
:100CAF007F0C120EF07F027E00120CF27F441210A6
:100CBF0038E975F06484FFE975F00A84F519E97570
:100CCF00F00A84A9F0EF9008F993FF120E23E519AB
:0B0CDF0093FF120E23E993FF020E2387
:10040C00120ECB7F851210468F19E5195470C45407
:10041C000F75F00AA4FFE519540F2FF51A20B11629
:10042C007F327E00120CF220B10C051A7F2C7E015B
:10043C00120CF230B1FD20B21D7F327E00120CF294
:10044C0020B213151A7F2C7E01120CF2E51A7003E0
:10045C00751A1730B2FDE51A75F00A84C454F0FF12
:10046C00E51A75F00A84E5F04FF519FD7F84120E3C
:10047C00D67F017E00120CF2AF1A120F0B7F4912BD
:10048C001038120CEEE51AC394184003E4F51A1256
:10049C000CEE20B305120EEB800320B0807D807F24
:0404AC008E020ED6D8
:10036200120ECB7F831210468F19E5195470C454B4
:100372000F75F00AA4FFE519540F2FF51A20B119D1
:100382007F0A7E00120CF220B10F051AE51AC394FF
:100392003C4003E4F51930B1FD20B21D7F0A7E0016
:1003A200120CF220B213151A7F2C7E01120CF2E508
:1003B2001A7003751A3B30B2FDE51A75F00A84C44F
:1003C20054F0FFE51A75F00A84E5F04FF519FD7F48
:1003D20082120ED67F017E00120CF2AF1A120FF0BB
:1003E2007F4C121038120CEEE51AC3943C4003E421
:1003F200F51A120CEE20B305120EEB800630B00394
:0A04020002037F7D807F8E020ED67C
:100BEA00120ECB20B1167F0A7E00120CF220B10C35
:100BFA00E4F519FD7F80120ED630B1FD7F017E002B
:100C0A00120CF2AF19120FD77F4F121038120CEED6
:100C1A0020B305120EEB800320B0C87D807F8E02C0
:020C2A000ED6E4
:10083200120ECB7F8D1210468F19E5195470C454D5
:100842000F75F00AA4FFE519540F2FF51A20B10F06
:100852007F0A7E00120CF220B105051A30B1FD208C
:10086200B2167F0A7E00120CF220B20C151A7F2CEF
:100872007E01120CF230B2FDE51A75F00A84C454FE
:10088200F0FFE51A75F00A84E5F04FF519FD7F8C4B
:10089200120ED6120CEEAF1A120F68120CEE7F096E
:1008A200121038120CEE20B305120EEB800320B0AA
:0808B2009C7D807F8E020ED6B2
:1005EA00120ECB7F891210468F19E5195470C45424
:1005FA000F75F00AA4FFE519540F2FF51A20B11947
:10060A007F0A7E00120CF220B10F051AE51AD39464
:10061A000C4003751A0130B1FD20B21D7F0A7E001D
:10062A00120CF220B213151A7F2C7E01120CF2E57D
:10063A001A7003751A0C30B2FDE51A75F00A84C4F3
:10064A0054F0FFE51A75F00A84E5F04FF519FD7FBD
:10065A0088120ED67F017E00120CF2AF1A120F49D1
:10066A007F0C121038120CEE20B305120EEB800329
:0A067A0020B08A7D807F8E020ED62C
:10068400120ECB7F871210468F19E5195470C4548B
:100694000F75F00AA4FFE519540F2FF51A20B119AC
:1006A4007F0A7E00120CF220B10F051AE51AD394CA
:1006B4001F4003751A0130B1FD20B21D7F0A7E0070
:1006C400120CF220B213151A7F2C7E01120CF2E5E3
:1006D4001A7003751A1F30B2FDE51A75F00A84C446
:1006E40054F0FFE51A75F00A84E5F04FF519FD7F23
:1006F40086120ED67F017E00120CF2AF1A120F2A58
:100704007F0F121038120CEE20B305120EEB80038B
:0A07140020B08A7D807F8E020ED691
:100A6E00850F1920B1217F147E00120CF220B117D0
:100A7E007F0C120EF0120CEE0519E519D3941740E7
:100A8E0003E4F51930B1FD20B2137F147E00120C71
:100A9E00F220B209D5190375191730B2FD85190F59
:100AAE00AF0F120E647F4512105820B3B67FF47E3E
:040ABE0001120CF223
:010AC2002211
:100B5E0020B1197F147E00120CF220B10F0518E59A
:100B6E0018D3943B4003E4F51830B1FD20B2137F47
:100B7E00147E00120CF220B209D5180375183B3002
:100B8E00B2FDAF18120E877F4812105820B3C17FE6
:070B9E00F47E01120CF222AB
:10093E0012054F20B0727F0A7E00120CF220B068B2
:10094E0005117F147E00120CF2E51124FE601A14BC
:10095E00602114602814602F146036240570417FC6
:10096E004812105812040C80307F4C12105812038B
:10097E006280267F4F121058120BEA801C7F0912DC
:10098E00105812083280127F0C1210581205EA808D
:10099E00087F0F1210581206847FF47E01120CF29B
:0909AE00E511B40703E4F5112280
:100D2200C200D2B6E4F5120512E512B402F9C2B657
:100D3200E4F5120512E512B4C8F9D2B6E4F51205CB
:100D420012E512B40AF9A2B69200E4F5120512E510
:060D520012B4C8F9A20072
:010D58002278
:100DC000E4FED2B600C2B600D2B6E4F5120512E5D2
:100DD00012B402F9EFC313FF30B605430780800059
:0E0DE000E4F5120512E512B40AF90EBE08D4AD
:010DEE0022E2
:100D5900E4FED2B600C2B6EF1392B6E4F51205125C
:100D6900E512B40AF9D2B6E4F5120512E512B40196
:100D7900F9EFC313FF0EBE08D9E4F5120512E51207
:030D8900B404F9B6
:010D8C002244
:100EAA00120D227FCC120D597F44120D597FC87E34
:100EBA0000120CF2120D227FCC120D597FBE020DC8
:010ECA0059CE
:100C2C00E4F9FF121038E990091693FF600D120ECB
:100C3C0023097F647E00120CF280EB120CEEE4F9B7
:100C4C007F40121038E990092493FF600D120E2397
:100C5C00097F647E00120CF280EB7FB87E0B020CD5
:010C6C00F295
:100AC300E4F9FF121038800CE990090493FF6009E0
:100AD300120E2309120CEE80EFE4F97F4012103856
:100AE300E990093293FF6005120CEA80F3E4F97F81
:100AF3004C121038E990093993FF6005120CEA8013
:100B0300F37F491210387F2E120E237F057E0002D9
:020B13000CF2E2
:100C6D00EF75F06484F51AEF75F06484E5F075F0B6
:100C7D000A84F51BEF75F00A84A9F07F461210382F
:100C8D00E50CB401057F2D120E23E51A9008F9939A
:100C9D00FF120E23E51B120E1B7F327E00020CF29B
:100FBD00A9077F4A121038120CEEE99008F993FF39
:0A0FCD00120E237F327E00020CF2A8
:1009B7007F01120EF07F0A7E00120CF27F031210E5
:1009C700387F0A7E00120CF27F57120E237F4112E6
:1009D7000E237F52120E237F4E120E237F49120ED3
:1009E700237F4E120E237F47120E237F21120E23E1
:1009F7007F40121038E51A9008E893FF600E120E38
:0C0A070023051A7F0A7E00120CF280E921
:010A130022C0
:10027600120CEE120D225003020C2C7F017E00128E
:100286000CF27F01120EF0120CEE120AC375083240
:10029600E4F519E4F50C120EAA120DC08F0E120D1C
:1002A600C08F0DE50D54F86039750C01630EFF63C0
:1002B6000DFF050EE50ED394FF4002050DE50EC4B5
:1002C600540FFFE50DC454F02FF510E50E540F75CD
:1002D600F00AA4FFE5F0C4F854F0C8EFC4540F4880
:1002E600F50BE50EC4540FFFE50DC454F02FF510C1
:1002F600E50E540F75F00AA4FFE5F0C4F854F0C8F3
:10030600EFC4540F48F50BAF10120C6DAF0B120F64
:10031600BD7F0A7E00120CF20519E519C39406503A
:1003260003020299E51564017022E510C395164093
:100336001B7F03121038120CEE1209B77F01120D43
:100346008D20B3F87F01120EF0120CEE30B30C15AF
:0B03560008E508D39400400302029663
:010361002279
:100E3F0020B10F7F0A7E00120CF220B1050516308B
:100E4F00B1FD20B20F7F0A7E00120CF220B2051501
:050E5F001630B2FD2277
:10015E007F01120EF07F0A7E00120CF27F03121046
:10016E00387F0A7E00120CF27F54120E237F451246
:10017E000E237F4D120E237F50120E237F09121075
:10018E00387F53120E237F45120E237F54120E23F7
:10019E007F401210387F4D120E237F41120E237FA7
:1001AE0058120E237F3A120E2320B0697F147E0060
:1001BE00120CF220B05F7F4E1210387F0F120EF02D
:1001CE0020B1247F147E00120CF220B11A7F4B1244
:1001DE001038120CEE7F4F120E237F4E120E237F1D
:1001EE0020120E2375150120B2217F147E00120CF1
:1001FE00F220B2177F4B1210387F4F120E237F461C
:10020E00120E237F46120E23E4F51520B3B27FF4AF
:10021E007E01120CF2E515640170217F4B1210382D
:10022E007F4F120E237F4E120E237F20120E2312AB
:10023E000E3FAF16120CAD20B3028023E5157019D8
:10024E007F0C120EF07F4B1210387F4F120E237F51
:10025E0046120E237F46120E2330B3030201B77FE0
:08026E0001120EF01207AA2292
:100B150020B1217F647E00120CF220B117751401FB
:100B25007F4C1210387F4F120E237F4E120E237FFB
:100B350020120E2320B217E4F5147F4C1210387FD3
:100B45004F120E237F46120E237F46120E2320B32B
:090B5500BF7FF47E01120CF222B4
:1000030030B00302015D7F0A7E00120CF230B003B0
:1000130002015D7F401210387F54120E237F0F12AE
:100023000EF07FE87E03120CF27F0C120EF0120921
:100033003E20B1257F147E00120CF220B11B7F01FC
:10004300120EF01F121038120CEE7F53120E237F84
:100053000A7E00120CF212015E30B2030201487FE5
:10006300147E00120CF230B2030201487F01120E1B
:10007300F0120CEE7F021210387F41120E237F4CD8
:10008300120E237F41120E237F52120E237F4D1235
:100093000E237F091210387F53120E237F45120E51
:1000A300237F54120E237F461210387F2D120E2306
:1000B300AF0F120E64AF18120E87E514B401147F4C
:1000C3004C1210387F4F120E237F4E120E237F20C7
:1000D300120E23E51470147F4C1210387F4F120E4A
:1000E300237F46120E237F46120E2320B0497F64DE
:1000F3007E00120CF220B03F0509E50924FE6011D1
:10010300146018240270287F45121058120A6E805A
:10011300127F48121058120B5E80087F4C12105841
:10012300120B157F0C120EF07FF47E01120CF2E518
:1001330009B40403E4F50920B3B17F01120EF012F0
:100143000CEE1207AA30B3030200317F40121038BD
:0B0153007F20120E237F0C120EF02202
:1004B00075A882758901C28C120BA57F017E00127E
:1004C0000CF2120DEF7F027E00120CF2120A1412CF
:1004D00007AA12054F12000320B1137F01120EF07C
:1004E000120CEE1202767F01120EF01207AAE5132B
:1004F000B50FDFE50AB518DAE51770D6E514B401D3
:10050000D17F01120EF0120CEE7F031210387F54CF
:10051000120E237F49120E237F4D120E237F4512A8
:100520000E237F081210387F55120E237F50120EB3
:10053000237F21120E23120CEE7F01120D8D20B3AA
:0F054000F87F01120EF0120CEE1207AA0204D27D
:0300000002071ED6
:0C071E00787FE4F6D8FD758120020765A5
:10072A000204B0E493A3F8E493A34003F68001F231
:10073A0008DFF48029E493A3F85407240CC8C333D0
:10074A00C4540F4420C8834004F456800146F6DF9F
:10075A00E4800B010204081020408090107CE47EA3
:10076A00019360BCA3FF543F30E509541FFEE49394
:10077A00A360010ECF54C025E060A840B8E493A35B
:10078A00FAE493A3F8E493A3C8C582C8CAC583CA86
:10079A00F0A3C8C582C8CAC583CADFE9DEE780BE3E
:01108200006D
:00000001FF
